:020000040800F2
:1000000000500020AD130008051200080D12000872
:10001000151200081D12000825120008000000003B
:1000200000000000000000000000000031B70008E0
:100030002D1200080000000011B900088D9300087F
:10004000F5130008F5130008F5130008F513000870
:10005000F5130008F5130008F5130008F513000860
:10006000F5130008F5130008F5130008F513000850
:10007000F5130008F5130008F5130008F513000840
:10008000F5130008F5130008F5130008F513000830
:1000900039120008F5130008F5130008F5130008DD
:1000A000F51300084D120008F5130008F5130008B9
:1000B000F5130008F5130008F5130008F513000800
:1000C000F5130008F5130008F5130008F5130008F0
:1000D000F5130008F5130008F5130008F5130008E0
:1000E000F5130008F5130008F513000800000000E0
:1000F0000000000000000000000000000000000000
:0C01000000000000000000005FF808F1A3
:1001100010B5054C237833B9044B13B10448AFF341
:1001200000800123237010BDFC01002000000000AE
:1001300074D7000808B5034B1BB103490348AFF35C
:10014000008008BD000000000002002074D70008F5
:1001500010F8012B11F8013B012A28BF9A42F7D071
:10016000D01A704780F0004002E000BF81F00041EB
:1001700042001FBF5FEA410392EA030F7FEA226C4D
:100180007FEA236C6AD04FEA1262D2EB1363C1BFDD
:10019000D218414048404140B8BF5B42192B88BF4C
:1001A000704710F0004F40F4000020F07F4018BF6F
:1001B000404211F0004F41F4000121F07F4118BF8F
:1001C000494292EA030F3FD0A2F1010241FA03FC37
:1001D00010EB0C00C3F1200301FA03F100F000431F
:1001E00002D5494260EB4000B0F5000F13D3B0F1E7
:1001F000807F06D340084FEA310102F10102FE2A56
:1002000051D2B1F1004F40EBC25008BF20F00100C5
:1002100040EA03007047490040EB0000013A28BF64
:10022000B0F5000FEDD2B0FA80FCACF1080CB2EBE7
:100230000C0200FA0CF0AABF00EBC2505242184365
:10024000BCBFD0401843704792F0000F81F400010A
:1002500006BF80F400000132013BB5E74FEA4103DD
:100260007FEA226C18BF7FEA236C21D092EA030F49
:1002700004D092F0000F08BF0846704790EA010FC3
:100280001CBF0020704712F07F4F04D1400028BFF0
:1002900040F00040704712F100723CBF00F50000D2
:1002A000704700F0004343F0FE4040F40000704708
:1002B0007FEA226216BF08467FEA236301464202B4
:1002C00006BF5FEA412390EA010F40F480007047C7
:1002D0004FF0000304E000BF10F0004348BF40426D
:1002E0005FEA000C08BF704743F0964301464FF0A9
:1002F00000001CE050EA010208BF70474FF0000305
:100300000AE000BF50EA010208BF704711F0004345
:1003100002D5404261EB41015FEA010C02BF844615
:100320000146002043F0B64308BFA3F18053A3F574
:100330000003BCFA8CF2083AA3EBC25310DB01FABB
:1003400002FC634400FA02FCC2F12002BCF1004F3F
:1003500020FA02F243EB020008BF20F001007047D0
:1003600002F1200201FA02FCC2F1200250EA4C0024
:1003700021FA02F243EB020008BF20EADC7070476A
:100380004FF0FF0C1CEAD0521EBF1CEAD15392EA78
:100390000C0F93EA0C0F6FD01A4480EA010C400254
:1003A00018BF5FEA41211ED04FF0006343EA5010AE
:1003B00043EA5111A0FB01310CF00040B1F5000FF0
:1003C0003EBF490041EAD3715B0040EA010062F19F
:1003D0007F02FD2A1DD8B3F1004F40EBC25008BF89
:1003E00020F00100704790F0000F0CF0004C08BFA7
:1003F00049024CEA502040EA51207F3AC2BFD2F174
:10040000FF0340EAC250704740F400004FF0000381
:10041000013A5DDC12F1190FDCBF00F000407047BB
:10042000C2F10002410021FA02F1C2F1200200FAF9
:1004300002FC5FEA310040F1000053EA4C0308BFC0
:1004400020EADC70704792F0000F00F0004C02BF11
:10045000400010F4000F013AF9D040EA0C0093F08C
:10046000000F01F0004C02BF490011F4000F013BE6
:10047000F9D041EA0C018FE70CEAD15392EA0C0F54
:1004800018BF93EA0C0F0AD030F0004C18BF31F0BF
:10049000004CD8D180EA010000F00040704790F095
:1004A000000F17BF90F0004F084691F0000F91F039
:1004B000004F14D092EA0C0F01D142020FD193EAFF
:1004C0000C0F03D14B0218BF084608D180EA010087
:1004D00000F0004040F0FE4040F40000704740F063
:1004E000FE4040F4400070474FF0FF0C1CEAD05231
:1004F0001EBF1CEAD15392EA0C0F93EA0C0F69D08D
:10050000A2EB030280EA010C49024FEA402037D0F7
:100510004FF0805343EA111143EA10130CF00040EE
:100520008B4238BF5B0042F17D024FF4000C8B42DE
:1005300024BF5B1A40EA0C00B3EB510F24BFA3EBBE
:10054000510340EA5C00B3EB910F24BFA3EB91038E
:1005500040EA9C00B3EBD10F24BFA3EBD10340EAE8
:10056000DC001B0118BF5FEA1C1CE0D1FD2A3FF62E
:1005700050AF8B4240EBC25008BF20F001007047E3
:100580000CF0004C4CEA50207F32C2BFD2F1FF0386
:1005900040EAC250704740F400004FF00003013AB7
:1005A00037E792F0000F00F0004C02BF400010F45B
:1005B000000F013AF9D040EA0C0093F0000F01F06F
:1005C000004C02BF490011F4000F013BF9D041EA91
:1005D0000C0195E70CEAD15392EA0C0F08D14202C4
:1005E0007FF47DAF93EA0C0F7FF470AF084676E797
:1005F00093EA0C0F04D14B023FF44CAF08466EE770
:1006000030F0004C18BF31F0004CCAD130F000423D
:100610007FF45CAF31F000437FF43CAF5FE700BF95
:100620004FF0FF3C06E000BF4FF0010C02E000BFBE
:100630004FF0010C4DF804CD4FEA40024FEA410360
:100640007FEA226C18BF7FEA236C11D001B052EA16
:10065000530C18BF90EA010F58BFB2EB030088BFDC
:10066000C81738BF6FEAE17018BF40F0010070474B
:100670007FEA226C02D15FEA402C05D17FEA236C2D
:10068000E4D15FEA412CE1D05DF8040B704700BF74
:10069000844608466146FFE70FB5FFF7C9FF00280B
:1006A00048BF10F1000F0FBD4DF808EDFFF7F4FF44
:1006B0000CBF012000205DF808FB00BF4DF808EDDD
:1006C000FFF7EAFF34BF012000205DF808FB00BF00
:1006D0004DF808EDFFF7E0FF94BF012000205DF822
:1006E00008FB00BF4DF808EDFFF7D2FF94BF0120D3
:1006F00000205DF808FB00BF4DF808EDFFF7C8FFCC
:1007000034BF012000205DF808FB00BF4FEA400223
:10071000B2F1FE4F0FD34FF09E03B3EB12620DD92F
:100720004FEA002343F0004310F0004F23FA02F099
:1007300018BF404270474FF00000704712F1610F40
:1007400001D1420205D110F0004008BF6FF0004017
:1007500070474FF00000704780B483B000AF7860FE
:100760000A4B1B680A4AA2FB0323DB0D7A6802FBD3
:1007700003F37B6000BF7B685A1E7A60002BFAD1BE
:1007800000BF00BF0C37BD4680BC70472000002072
:10079000B5FA9BEE80B584B000AF3B4600221A60EC
:1007A0005A609A60DA6004210E4801F0DFF80423F1
:1007B0003B6011237B600023BB600323FB603B464F
:1007C0001946084800F04EFF4FF47A7000F046FEDC
:1007D00001220421034801F09CF900BF1037BD46F7
:1007E00080BD00BF0008014080B586B000AF7860D2
:1007F00000237B7500220421544801F08AF901226C
:100800000421524801F085F94FF4FA60FFF7A4FF84
:10081000002204214D4801F07CF94FF49660FFF767
:100820009BFF01220421494801F073F92720FFF7BB
:1008300093FF0421454801F055F90346012B01D1EE
:1008400000237EE05020FFF787FF04213F4801F09E
:1008500049F90346002B01D1002372E05020FFF735
:100860007BFF00237B7540E07B7D18333B440022F7
:1008700003F80C2C0023BB7531E000BF0421334882
:1008800001F030F90346002BF8D01E20FFF764FF7B
:1008900004212E4801F026F90346002B14D07B7D5D
:1008A00018333B4413F80C3C5AB2BB7DC3F1070329
:1008B000012101FA03F35BB213435AB27B7DD2B23A
:1008C00018333B4403F80C2C00BF04211F4801F0EF
:1008D00009F90346012BF8D0BB7D0133BB75BB7D05
:1008E000072BCAD97B7D01337B757B7D042BBBD95C
:1008F0000023FB7500233B750AE03B7D18333B4426
:1009000013F80C2CFB7D1344FB753B7D01333B75C9
:100910003B7D032BF1D9BB7B1B021AB2FB7B1BB2C5
:1009200013431BB27B827B8A1846FFF7D5FC034634
:1009300007491846FFF7D8FD03461A467B681A6038
:10094000012318461837BD4680BD00BF000801408E
:100950000000204180B582B000AF786000BF3B1D31
:10096000012118460BF02CFB0346012BF7D07B68C6
:1009700018460837BD4680BD80B586B004AF4FF439
:100980007A73029301230193FB1D009301237522C7
:10099000D021234801F014FBFB79682B3BD10023C5
:1009A000BB714FF47A73029301230193BB1D009333
:1009B00001236B22D0211A4801F008FA0723BB71EA
:1009C0004FF47A73029301230193BB1D009301231B
:1009D0001922D021124801F0F9F90023BB714FF41C
:1009E0007A73029301230193BB1D009301231C2200
:1009F000D0210B4801F0EAF90023BB714FF47A7360
:100A0000029301230193BB1D009301231B22D021DC
:100A1000034801F0DBF900BF0837BD4680BD00BFC9
:100A20007402002080B586B004AF4FF47A7302934D
:100A3000062301933B46009301233B22D021294802
:100A400001F0BEFA3B781B021AB27B781BB213434B
:100A50001AB2254B1A80BB781B021AB2FB781BB264
:100A600013431AB2214B1A803B791B021AB27B79CD
:100A70001BB213431AB21E4B1A801B4BB3F9003042
:100A80001846FFF729FC03464FF08D411846FFF743
:100A90002BFD03461A46174B1A60144BB3F900306E
:100AA0001846FFF719FC03464FF08D411846FFF733
:100AB0001BFD03461A46104B1A600D4BB3F900306C
:100AC0001846FFF709FC03464FF08D411846FFF723
:100AD0000BFD03461A46094B1A6000BF0837BD4696
:100AE00080BD00BF74020020180200201A020020FE
:100AF0001C020020200200202402002028020020E6
:100B000080B582B000AF786039603A687968134880
:100B10000CF00FF9114A3B68134400221A70104977
:100B20000E48FFF715FB0346002B06D10D4B0122A3
:100B30001A700D4B01221A700CE00C490748FFF7A0
:100B400007FB0346002B05D1064B00221A70064B0B
:100B500000221A7000BF0837BD4680BD3402002055
:100B6000A0D700083002002031020020A8D70008DA
:100B700080B500AF00F068FC0346184680BD000059
:100B800080B485B000AF78600023FB6030E01D4A80
:100B9000FB681B01134404331B687A689A4224D310
:100BA000184AFB681B01134404331A681549FB6893
:100BB0001B010B440C331B681A441249FB681B01D0
:100BC0000B4404331A600F4AFB681B0113440433BF
:100BD0001A680C49FB681B010B4408331B68D21AC6
:100BE0000849FB681B010B441A60FB680133FB607A
:100BF000FB68012BCBDD00BF00BF1437BD4680BCB6
:100C0000704700BF0000002080B485B000AF4FF0F7
:100C1000FF33FB604FF0FF33BB6000237B6012E0CB
:100C20000D4A7B681B0113441B68BA689A4207D9B6
:100C3000094A7B681B0113441B68BB607B68FB602F
:100C40007B6801337B607B68012BE9DDFB6818461C
:100C50001437BD4680BC70470000002080B586B0C8
:100C600002AF284B1B7883F00103DBB2002B03D0CB
:100C7000642008F07FFC43E0FFF77AFFB860B868B3
:100C8000FFF77EFFB96820480BF03AFE0023FB60B7
:100C900019E01E4AFB681B0113441A681B49FB68D4
:100CA0001B010B44043319681848FB681B010344FB
:100CB0000C331B6800930B46F96815480BF020FEB7
:100CC000FB680133FB60FB68012BE2DDFFF79CFF53
:100CD00078607B68002B06D10E480BF079FE00206F
:100CE00000F024F908E07B68012B05D10A480BF0DD
:100CF0006FFE002000F03CF94FF47A7008F03AFCE7
:100D0000AFE700BF30020020B0D70008000000208D
:100D1000C8D7000808D8000820D8000880B500AF60
:100D200000F06AFB00F02EF800F0B6F800F086F84C
:100D30000BF082F8FFF72EFDFFF71EFE08F040FBD8
:100D40000A4A00210A4808F083FB0346094A136057
:100D5000094A0021094808F07BFB0346084A136052
:100D600008F050FBFFF77AFF00BFFDE7ACD80008A2
:100D70002D0F0008C8020020D0D80008710F00080D
:100D8000CC02002080B594B000AF07F128032822E0
:100D9000002118460BF0FCFE07F1140300221A6034
:100DA0005A609A60DA601A613B1D00221A605A602C
:100DB0009A60DA600123BB624FF48033FB62002348
:100DC0003B630123BB6302237B644FF48033BB642A
:100DD0004FF48013FB6407F12803184603F078FCF6
:100DE0000346002B01D000F01FF90F237B61022383
:100DF000BB610023FB614FF480633B6200237B6295
:100E000007F114030121184603F0E4FE0346002B0A
:100E100001D000F009F910237B604FF480033B619F
:100E20003B1D184604F094F80346002B01D000F057
:100E3000FBF800BF5037BD4680BD000080B500AF55
:100E4000124B134A1A60114B124A5A600F4B002280
:100E50009A600E4B0022DA600C4B4FF480421A610C
:100E60000A4B00225A61094B00229A61074B00226B
:100E7000DA61064B00221A62044800F063FE034662
:100E8000002B01D000F0D0F800BF80BD740200201C
:100E900000540040A086010080B588B000AF07F183
:100EA000100300221A605A609A60DA601D4B9B6939
:100EB0001C4A43F0200393611A4B9B6903F0200303
:100EC000FB60FB68174B9B69164A43F00403936170
:100ED000144B9B6903F00403BB60BB68114B9B6917
:100EE000104A43F0080393610E4B9B6903F008031B
:100EF0007B607B68002204210B4800F00AFE04237B
:100F00003B6101237B610123BB610223FB6107F18C
:100F100010031946044800F0A5FB00BF2037BD466A
:100F200080BD00BF001002400008014080B582B0C3
:100F300000AF78600AF080FF0A4B1B78002B0CD0C2
:100F40000948FFF751FC084B1B681846FFF7DEFB0A
:100F50000346194605480BF0D3FC4FF47A7008F0AD
:100F600009FBE9E7300200202C02002038D80008F5
:100F7000B0B582B000AF78601D4B1B78002B32D02B
:100F8000FFF750FD1B4B1B684FF000011846FFF7A1
:100F900095FB0346002B01D02D2400E02B24154B9C
:100FA0001B681846FFF7B2FB0546124B1B68124937
:100FB0001846FFF7E5F903461846FFF7A7FB024678
:100FC0000E4B83FB02131913D317CB1A42F2107185
:100FD00001FB03F3D31A002BB8BF5B422A4621461C
:100FE00007480BF08DFC4FF47A7008F0C3FAC3E7A2
:100FF000310200202002002000401C46AD8BDB683F
:1010000040D8000880B582B000AF78607B681B686C
:10101000044A934201D100F005FA00BF0837BD46EB
:1010200080BD00BF002C014080B400AF72B600BF8D
:1010300000BFFDE780B584B000AF184B9B69174A2D
:1010400043F001039361154B9B6903F00103BB60FF
:10105000BB68124BDB69114A43F08053D3610F4BDD
:10106000DB6903F080537B607B6800220F216FF007
:10107000010000F0CCFA0A4B5B68FB60FB6823F0D0
:10108000E063FB60FB6843F00073FB60044AFB68AD
:10109000536000BF1037BD4680BD00BF0010024046
:1010A0000000014080B588B000AF786007F1100300
:1010B00000221A605A609A60DA607B681B68154AE1
:1010C000934223D1144B9B69134A43F00803936165
:1010D000114B9B6903F00803FB60FB68C0233B6175
:1010E00012237B610323FB6107F1100319460B48B0
:1010F00000F0B8FA084BDB69074A43F40013D361E8
:10110000054BDB6903F40013BB60BB6800BF2037ED
:10111000BD4680BD0054004000100240000C01405C
:1011200080B58CB000AF78600023BB6200237B6287
:10113000002387F82F302E4B9B692D4A43F4006320
:1011400093612B4B9B6903F40063BB60BB6807F1A1
:101150000C0207F110031146184603F0ABFE03F032
:1011600095FEB862BB6A234AA2FB03239B0C013B9A
:101170007B62214B214A1A601F4B40F2E732DA6052
:101180001D4A7B6A53601C4B00221A611A4B0022D5
:101190009A60194B00229A61174803F08FFF0346AB
:1011A00087F82F3097F82F30002B1BD1124803F00F
:1011B000DDFF034687F82F3097F82F30002B11D131
:1011C000192000F040FA7B680F2B08D800227968BC
:1011D000192000F01CFA0A4A7B68136002E0012320
:1011E00087F82F3097F82F3018463037BD4680BD2E
:1011F0000010024083DE1B43D0020020002C01407F
:101200002400002080B400AF00BFFDE780B400AF31
:1012100000BFFDE780B400AF00BFFDE780B400AFC2
:1012200000BFFDE780B400AF00BFFDE780B400AFB2
:1012300000BFBD4680BC704780B500AF024801F0DA
:1012400002FE00BF80BD00BFD029002080B500AFE6
:10125000024803F0DDFF00BF80BD00BFD0020020C8
:1012600080B586B000AFF860B9607A6000237B611A
:101270000AE0AFF300800146BB685A1CBA60CAB2EC
:101280001A707B6901337B617A697B689A42F0DB73
:101290007B6818461837BD4680BD80B586B000AF64
:1012A000F860B9607A6000237B6109E0BB685A1C72
:1012B000BA601B781846FFF74DFB7B6901337B61F1
:1012C0007A697B689A42F1DB7B6818461837BD461D
:1012D00080BD80B483B000AF78604FF0FF33184614
:1012E0000C37BD4680BC704780B483B000AF7860D7
:1012F00039603B684FF400525A60002318460C379F
:10130000BD4680BC704780B483B000AF78600123D5
:1013100018460C37BD4680BC704780B485B000AF1E
:10132000F860B9607A60002318461437BD4680BC67
:101330007047000080B586B000AF7860144A154B46
:10134000D31A7B617B693B61134B1B68002B02D175
:10135000114B124A1A60104B1A687B6813443A69A1
:101360009A4207D20BF0B8FC03460C221A604FF0E9
:10137000FF3309E0084B1B68FB60074B1A687B686A
:101380001344054A1360FB6818461837BD4680BDF4
:101390000050002000040000180300201830002036
:1013A00080B400AF00BFBD4680BC7047FFF7F8FFB8
:1013B0000B480C490C4A002302E0D458C4500433B3
:1013C000C4188C42F9D3094A094C002301E0136088
:1013D0000432A242FBD30BF085FCFFF79FFC704761
:1013E00000000020FC01002064D90008FC0100205E
:1013F00014300020FEE7000080B500AF084B1B68EA
:10140000074A43F010031360032000F0F5F80F20A3
:10141000FFF786FEFFF70EFE0023184680BD00BFD3
:101420000020024080B400AF054B1B781A46054BE4
:101430001B681344034A136000BFBD4680BC70475D
:10144000280000201C03002080B400AF024B1B6862
:101450001846BD4680BC70471C03002080B584B090
:1014600000AF7860FFF7F0FFB8607B68FB60FB6857
:10147000B3F1FF3F05D00A4B1B781A46FB681344B3
:10148000FB6000BFFFF7E0FF0246BB68D31AFA68B3
:101490009A42F7D800BF00BF1037BD4680BD00BFDD
:1014A0002800002080B485B000AF78607B6803F02E
:1014B0000703FB600C4BDB68BB60BA684FF6FF03A9
:1014C0001340BB60FB681A02BB68134343F0BF6361
:1014D00043F40033BB60044ABB68D36000BF1437D9
:1014E000BD4680BC704700BF00ED00E080B400AF97
:1014F000044BDB681B0A03F007031846BD4680BC9B
:10150000704700BF00ED00E080B483B000AF034639
:10151000FB7197F90730002B0BDBFB7903F01F02FF
:10152000064997F907305B09012000FA02F241F8F9
:10153000232000BF0C37BD4680BC704700E100E0AF
:1015400080B483B000AF03463960FB7197F9073070
:10155000002B0ADB3B68DAB20C4997F9073012011D
:10156000D2B20B4483F800230AE03B68DAB20849A0
:10157000FB7903F00F03043B1201D2B20B441A763D
:1015800000BF0C37BD4680BC704700BF00E100E0E3
:1015900000ED00E080B489B000AFF860B9607A6017
:1015A000FB6803F00703FB61FB69C3F10703042B2E
:1015B00028BF0423BB61FB690433062B02D9FB69F6
:1015C000033B00E000237B614FF0FF32BB6902FA6E
:1015D00003F3DA43BB681A407B699A404FF0FF314E
:1015E0007B6901FA03F3D9437B680B401343184628
:1015F0002437BD4680BC704780B582B000AF7860AC
:101600007868FFF74FFF00BF0837BD4680BD80B543
:1016100086B000AF0346B9607A60FB7300237B613C
:10162000FFF764FF78617A68B9687869FFF7B2FFFD
:10163000024697F90F3011461846FFF781FF00BFA9
:101640001837BD4680BD80B582B000AF0346FB7140
:1016500097F907301846FFF757FF00BF0837BD4618
:1016600080BD000080B48BB000AF7860396000238B
:101670007B6200233B6269E101227B6A02FA03F389
:10168000FB613B681B68FA691340BB61BA69FB697F
:101690009A4240F058813B685B689A4A93425ED018
:1016A000984A934275D8984A934258D0964A9342A2
:1016B0006FD8964A934252D0944A934269D8944A3A
:1016C00093424CD0924A934263D8924A934246D076
:1016D000904A93425DD8122B2AD8122B59D801A2D6
:1016E00052F823F05F170008391700084B1700085D
:1016F0008D17000893170008931700089317000828
:101700009317000893170008931700089317000811
:101710009317000893170008931700089317000801
:101720009317000893170008411700085517000881
:10173000794A934213D02CE03B68DB683B6229E096
:101740003B68DB6804333B6224E03B68DB680833BA
:101750003B621FE03B68DB680C333B621AE03B688E
:101760009B68002B02D104233B6213E03B689B681B
:10177000012B05D108233B627B68FA691A6109E0F5
:1017800008233B627B68FA695A6103E000233B62ED
:1017900000E000BFBB69FF2B01D87B6801E07B68DC
:1017A00004337B61BB69FF2B02D87B6A9B0002E09C
:1017B0007B6A083B9B003B617B691A680F213B6990
:1017C00001FA03F3DB431A40396A3B6901FA03F378
:1017D0001A437B691A603B685B6803F08053002BF7
:1017E00000F0B1804D4B9B694C4A43F0010393617B
:1017F0004A4B9B6903F00103BB60BB68484A7B6AA4
:101800009B08023352F82330FB607B6A03F003032A
:101810009B000F2202FA03F3DB43FA681340FB60DC
:101820007B68404A934213D07B683F4A93420DD075
:101830007B683E4A934207D07B683D4A934201D180
:10184000032306E0042304E0022302E0012300E076
:1018500000237A6A02F0030292009340FA6813436D
:10186000FB602F497B6A9B080233FA6841F823200A
:101870003B685B6803F48013002B06D02D4B9A68FD
:101880002C49BB6913438B6006E02A4B9A68BB69FD
:10189000DB43284913408B603B685B6803F400130B
:1018A000002B06D0234BDA682249BB691343CB6077
:1018B00006E0204BDA68BB69DB431E491340CB606E
:1018C0003B685B6803F40033002B06D0194B5A6861
:1018D0001849BB6913434B6006E0164B5A68BB6955
:1018E000DB43144913404B603B685B6803F480336F
:1018F000002B21D00F4B1A680E49BB6913430B60B4
:1019000021E000BF00003210000031100000221062
:101910000000211000001210000011100010024001
:101920000000014000080140000C0140001001408F
:1019300000140140000401400B4B1A68BB69DB43F3
:10194000094913400B607B6A01337B623B681A686C
:101950007B6A22FA03F3002B7FF48EAE00BF00BF38
:101960002C37BD4680BC70470004014080B489B06C
:1019700000AF786039600023FB619AE00122FB69C7
:1019800002FA03F33A681340BB61BB69002B00F015
:101990008D804E4AFB699B08023352F823307B61ED
:1019A000FB6903F003039B000F2202FA03F37A6939
:1019B00013407B617B68464A934213D07B68454A5B
:1019C00093420DD07B68444A934207D07B68434AD8
:1019D000934201D1032306E0042304E0022302E042
:1019E000012300E00023FA6902F003029200934011
:1019F0007A699A4232D13A4B1A68BB69DB4338495B
:101A000013400B60364B5A68BB69DB4334491340C3
:101A10004B60334BDA68BB69DB4331491340CB6021
:101A20002F4B9A68BB69DB432D4913408B60FB69E0
:101A300003F003039B000F2202FA03F37B61234AA6
:101A4000FB699B08023352F823107B69DA431F4875
:101A5000FB699B080A40023340F82320BB69FF2B37
:101A600001D87B6801E07B6804333B61BB69FF2BD5
:101A700002D8FB699B0002E0FB69083B9B00FB600E
:101A80003B691A680F21FB6801FA03F3DB431A4034
:101A90000421FB6801FA03F31A433B691A607B686F
:101AA000DA68BB69DB431A407B68DA60FB690133A3
:101AB000FB613A68FB6922FA03F3002B7FF45EAF07
:101AC00000BF00BF2437BD4680BC70470000014006
:101AD00000080140000C01400010014000140140CA
:101AE0000004014080B485B000AF78600B467B8075
:101AF0007B689A687B881340002B02D00123FB731C
:101B000001E00023FB73FB7B18461437BD4680BC05
:101B1000704780B483B000AF78600B467B8013467B
:101B20007B707B78002B03D07A887B681A6103E096
:101B30007B881A047B681A6100BF0C37BD4680BCE5
:101B40007047000080B584B000AF78607B68002BE0
:101B500001D101232BE17B6893F83D30DBB2002BF0
:101B600006D17B68002283F83C207868FFF79AFA58
:101B70007B68242283F83D207B681B681A687B6899
:101B80001B6822F001021A607B681B681A687B6878
:101B90001B6842F400421A607B681B681A687B6805
:101BA0001B6822F400421A6003F05CF9F8607B685D
:101BB0005B68814A934207D8FB68804A934294BF8E
:101BC00001230023DBB206E0FB687D4A934294BF09
:101BD00001230023DBB2002B01D00123E7E0FB68E7
:101BE000784AA2FB03239B0CBB607B681B685B6885
:101BF00023F03F017B681B68BA680A435A607B6820
:101C00001B681B6A23F03F017B685B686A4A93424A
:101C100002D8BB68013309E0BB684FF4967202FB3F
:101C200003F3694AA2FB03239B0901337A68126814
:101C30000B4313627B681B68DB6923F44F4222F07D
:101C4000FF027B685B685C498B4219D8FB68591EB0
:101C50007B685B685B00B1FBF3F3591C40F6FC73D7
:101C60000B40002B0AD0FB68591E7B685B685B0049
:101C7000B1FBF3F30133C3F30B0351E004234FE053
:101C80007B689B68002B11D1FB68581E7B685968E4
:101C90000B465B000B44B0FBF3F30133C3F30B03C0
:101CA000002B0CBF01230023DBB212E0FB68581E9F
:101CB0007B6859680B469B000B4499000B44B0FBB2
:101CC000F3F30133C3F30B03002B0CBF01230023F9
:101CD000DBB2002B01D0012322E07B689B68002B44
:101CE0000ED1FB68581E7B6859680B465B000B449D
:101CF000B0FBF3F30133C3F30B0343F400430FE0F2
:101D0000FB68581E7B6859680B469B000B44990082
:101D10000B44B0FBF3F30133C3F30B0343F4404331
:101D2000796809681343CB617B681B681B6823F0E3
:101D3000C0017B68DA697B681B6A1A437B681B6891
:101D40000A431A607B681B689B6823F4034323F0F3
:101D5000FF037A6811697A68D26811437A68126859
:101D60000B4393607B681B68DB6823F0FF017B6893
:101D70005A697B689B691A437B681B680A43DA606F
:101D80007B681B681A687B681B6842F001021A6056
:101D90007B6800221A647B68202283F83D207B68E0
:101DA00000221A637B68002283F83E200023184635
:101DB0001037BD4680BD00BFA08601007F841E0095
:101DC000FF083D0083DE1B43D34D621080B588B011
:101DD00002AFF860084611461A4603467B810B465F
:101DE0003B811346FB80FFF72FFB7861FB6893F87C
:101DF0003D30DBB2202B40F0D9807B690093192362
:101E000001226D49F86800F0CDFC0346002B01D09B
:101E10000223CCE0FB6893F83C30012B01D1022374
:101E2000C5E0FB68012283F83C20FB681B681B6847
:101E300003F00103012B07D0FB681B681A68FB68DD
:101E40001B6842F001021A60FB681B681A68FB6895
:101E50001B6822F400621A60FB68212283F83D208F
:101E6000FB68402283F83E20FB6800221A64FB686E
:101E70003A6A5A62FB68BA8C5A85FB685B8D9AB2E3
:101E8000FB681A85FB684D4ADA62F8883A897989D5
:101E90007B690193BB6A00930346F86800F004FB7A
:101EA0000346002B52D0012381E07A69B96AF868B1
:101EB00000F092FD0346002B0DD0FB681B6C042B39
:101EC00007D1FB681B681A68FB681B6842F4007244
:101ED0001A6001236BE0FB685B6A1A78FB681B6879
:101EE0001A61FB685B6A5A1CFB685A62FB681B8DAF
:101EF000013B9AB2FB681A85FB685B8D9BB2013B84
:101F00009AB2FB685A85FB681B685B6903F004039F
:101F1000042B1BD1FB681B8D002B17D0FB685B6A61
:101F20001A78FB681B681A61FB685B6A5A1CFB68BD
:101F30005A62FB681B8D013B9AB2FB681A85FB68ED
:101F40005B8D9BB2013B9AB2FB685A85FB681B8D87
:101F5000002BAAD17A69B96AF86800F085FD0346BA
:101F6000002B0DD0FB681B6C042B07D1FB681B6892
:101F70001A68FB681B6842F400721A60012316E0BD
:101F8000FB681B681A68FB681B6842F400721A60E1
:101F9000FB68202283F83D20FB68002283F83E2066
:101FA000FB68002283F83C20002300E0022318464F
:101FB0001837BD4680BD00BF020010000000FFFFC3
:101FC00080B58CB002AFF860084611461A46034649
:101FD0007B810B463B811346FB8000233B62FFF76E
:101FE00033FA7862FB6893F83D30DBB2202B40F087
:101FF00050827B6A0093192301228249F86800F01D
:10200000D1FB0346002B01D0022343E2FB6893F887
:102010003C30012B01D102233CE2FB68012283F812
:102020003C20FB681B681B6803F00103012B07D0F1
:10203000FB681B681A68FB681B6842F001021A60A3
:10204000FB681B681A68FB681B6822F400621A6050
:10205000FB68222283F83D20FB68402283F83E2063
:10206000FB6800221A64FB683A6B5A62FB68BA8EFE
:102070005A85FB685B8D9AB2FB681A85FB68624AD9
:10208000DA62F8883A8979897B6A0193BB6B00939D
:102090000346F86800F09EFA0346002B01D00123A6
:1020A000F8E1FB681B8D002B13D10023FB61FB685B
:1020B0001B685B69FB61FB681B689B69FB61FB69D3
:1020C000FB681B681A68FB681B6842F400721A60A0
:1020D000CCE1FB681B8D012B1ED1FB681B681A68C5
:1020E000FB681B6822F480621A6072B600BF00238E
:1020F000BB61FB681B685B69BB61FB681B689B6914
:10210000BB61BB69FB681B681A68FB681B6842F40B
:1021100000721A6062B635E0FB681B8D022B1ED17F
:10212000FB681B681A68FB681B6842F400621A604F
:1021300072B600BF00237B61FB681B685B697B6133
:10214000FB681B689B697B617B69FB681B681A687D
:10215000FB681B6822F480621A6062B612E0FB68BA
:102160001B681A68FB681B6842F480621A600023CF
:102170003B61FB681B685B693B61FB681B689B6993
:102180003B613B6972E1FB681B8D032B00F21F81F1
:10219000FB681B8D012B23D17A6AB96BF86800F0BC
:1021A000ABFC0346002B01D0012373E1FB681B68E5
:1021B0001A69FB685B6AD2B21A70FB685B6A5A1CC8
:1021C000FB685A62FB681B8D013B9AB2FB681A855B
:1021D000FB685B8D9BB2013B9AB2FB685A8545E177
:1021E000FB681B8D022B52D17B6A0093BB6B0022D4
:1021F0000649F86800F0D6FA0346002B08D0012300
:1022000048E100BF020010000000FFFF04000100D1
:1022100072B600BFFB681B681A68FB681B6842F453
:1022200000721A60FB681B681A69FB685B6AD2B2AD
:102230001A70FB685B6A5A1CFB685A62FB681B8D4C
:10224000013B9AB2FB681A85FB685B8D9BB2013B30
:102250009AB2FB685A8562B600BFFB681B681A69B0
:10226000FB685B6AD2B21A70FB685B6A5A1CFB6837
:102270005A62FB681B8D013B9AB2FB681A85FB68AA
:102280005B8D9BB2013B9AB2FB685A85EEE07B6A9C
:102290000093BB6B00228149F86800F083FA034683
:1022A000002B01D00123F5E0FB681B681A68FB686E
:1022B0001B6822F480621A6072B600BFFB681B685C
:1022C0001A69FB685B6AD2B21A70FB685B6A5A1CB7
:1022D000FB685A62FB681B8D013B9AB2FB681A854A
:1022E000FB685B8D9BB2013B9AB2FB685A856C4BD5
:1022F0001B68DB086B4AA2FB03231A0A13469B00E8
:102300001344DA00D31A3B623B6A013B3B623B6AEF
:10231000002B18D1FB6800221A63FB68202283F887
:102320003D20FB68002283F83E20FB681B6C43F0D5
:102330002002FB681A6462B600BFFB68002283F8C3
:102340003C200123A6E0FB681B685B6903F00403E3
:10235000042BD9D1FB681B681A68FB681B6842F420
:1023600000721A60FB681B681A69FB685B6AD2B26C
:102370001A70FB685B6A5A1CFB685A62FB681B8D0B
:10238000013B9AB2FB681A85FB685B8D9BB2013BEF
:102390009AB2FB685A8562B600BFFB681B681A696F
:1023A000FB685B6AD2B21A70FB685B6A5A1CFB68F6
:1023B0005A62FB681B8D013B9AB2FB681A85FB6869
:1023C0005B8D9BB2013B9AB2FB685A854EE07A6AFC
:1023D000B96BF86800F090FB0346002B01D0012395
:1023E00058E0FB681B681A69FB685B6AD2B21A7016
:1023F000FB685B6A5A1CFB685A62FB681B8D013BD9
:102400009AB2FB681A85FB685B8D9BB2013B9AB25E
:10241000FB685A85FB681B685B6903F00403042BA7
:1024200024D1FB681B8D032B07D1FB681B681A683E
:10243000FB681B6822F480621A60FB681B681A69DB
:10244000FB685B6AD2B21A70FB685B6A5A1CFB6855
:102450005A62FB681B8D013B9AB2FB681A85FB68C8
:102460005B8D9BB2013B9AB2FB685A85FB681B8D62
:10247000002B7FF488AEFB68202283F83D20FB68A8
:10248000002283F83E20FB68002283F83C200023D2
:1024900000E0022318462837BD4680BD0400010035
:1024A0002000002089B5F81480B588B002AFF8602C
:1024B000084611461A4603467B810B463B8113466C
:1024C000FB80FB681B681A68FB681B6842F480721B
:1024D0001A607B6A00933B6A00224FF00111F86892
:1024E00000F060F90346002B0DD0FB681B681B68E9
:1024F00003F48073B3F5807F03D1FB684FF400725F
:102500001A6403235FE07B89DBB21A46FB681B6811
:1025100002F0FE021A617B6A3A6A2D49F86800F0FF
:10252000BBF90346002B01D001234CE000237B6163
:10253000FB681B685B697B61FB681B689B697B614F
:102540007B697A6A396AF86800F046FA0346002B1C
:102550000DD0FB681B6C042B07D1FB681B681A6845
:10256000FB681B6842F400721A6001232BE0FB88B1
:10257000012B05D13B89DAB2FB681B681A6121E0A7
:102580003B891B0A9BB2DAB2FB681B681A617A6A44
:10259000396AF86800F020FA0346002B0DD0FB687A
:1025A0001B6C042B07D1FB681B681A68FB681B684F
:1025B00042F400721A60012305E03B89DAB2FB683D
:1025C0001B681A61002318461837BD4680BD00BF3E
:1025D0000200010080B588B002AFF86008461146DD
:1025E0001A4603467B810B463B811346FB80FB6802
:1025F0001B681A68FB681B6842F480621A60FB68FB
:102600001B681A68FB681B6842F480721A607B6A58
:1026100000933B6A00224FF00111F86800F0C2F805
:102620000346002B0DD0FB681B681B6803F4807306
:10263000B3F5807F03D1FB684FF400721A64032363
:10264000AAE07B89DBB21A46FB681B6802F0FE0237
:102650001A617B6A3A6A5249F86800F01DF903462C
:10266000002B01D0012397E000237B61FB681B68EE
:102670005B697B61FB681B689B697B617B697A6A2C
:10268000396AF86800F0A8F90346002B0DD0FB6802
:102690001B6C042B07D1FB681B681A68FB681B685E
:1026A00042F400721A60012376E0FB88012B05D109
:1026B0003B89DAB2FB681B681A6121E03B891B0A7F
:1026C0009BB2DAB2FB681B681A617A6A396AF868E9
:1026D00000F082F90346002B0DD0FB681B6C042B25
:1026E00007D1FB681B681A68FB681B6842F400721C
:1026F0001A60012350E03B89DAB2FB681B681A615B
:102700007A6A396AF86800F067F90346002B0DD041
:10271000FB681B6C042B07D1FB681B681A68FB68FD
:102720001B6842F400721A60012335E0FB681B68E5
:102730001A68FB681B6842F480721A607B6A009317
:102740003B6A00224FF00111F86800F02BF80346B5
:10275000002B0DD0FB681B681B6803F48073B3F576
:10276000807F03D1FB684FF400721A64032313E0E7
:102770007B89DBB243F00103DAB2FB681B681A61A4
:102780007B6A3A6A0649F86800F086F80346002B2F
:1027900001D0012300E0002318461837BD4680BD54
:1027A0000200010080B584B000AFF860B9603B6002
:1027B0001346FB7148E03B68B3F1FF3F44D0FEF79E
:1027C00043FE0246BB69D31A3A689A4202D33B6879
:1027D000002B39D1BB681B0CDBB2012B0DD1FB6880
:1027E0001B685B69DA43BB6813409BB2002B0CBFCC
:1027F00001230023DBB21A460CE0FB681B689B69CF
:10280000DA43BB6813409BB2002B0CBF01230023AB
:10281000DBB21A46FB799A4216D1FB6800221A6392
:10282000FB68202283F83D20FB68002283F83E20CD
:10283000FB681B6C43F02002FB681A64FB680022F3
:1028400083F83C20012323E0BB681B0CDBB2012B87
:102850000DD1FB681B685B69DA43BB6813409BB210
:10286000002B0CBF01230023DBB21A460CE0FB68EF
:102870001B689B69DA43BB6813409BB2002B0CBFFB
:1028800001230023DBB21A46FB799A4293D000233E
:1028900018461037BD4680BD80B584B000AFF860E3
:1028A000B9607A603B6071E0FB681B685B6903F4A8
:1028B0008063B3F5806F23D1FB681B681A68FB68DF
:1028C0001B6842F400721A60FB681B686FF4806238
:1028D0005A61FB6800221A63FB68202283F83D20BE
:1028E000FB68002283F83E20FB681B6C43F0040267
:1028F000FB681A64FB68002283F83C20012367E030
:102900007B68B3F1FF3F41D0FEF79EFD02463B6876
:10291000D31A7A689A4202D37B68002B36D1BB68FF
:102920001B0CDBB2012B0CD1FB681B685B69DA4323
:10293000BB6813409BB2002B14BF01230023DBB202
:102940000BE0FB681B689B69DA43BB6813409BB2D2
:10295000002B14BF01230023DBB2002B16D0FB6831
:1029600000221A63FB68202283F83D20FB680022C6
:1029700083F83E20FB681B6C43F02002FB681A645E
:10298000FB68002283F83C20012321E0BB681B0C7C
:10299000DBB2012B0CD1FB681B685B69DA43BB68B7
:1029A00013409BB2002B14BF01230023DBB20BE0CA
:1029B000FB681B689B69DA43BB6813409BB2002B22
:1029C00014BF01230023DBB2002B7FF46DAF002383
:1029D00018461037BD4680BD80B584B000AFF860A2
:1029E000B9607A6034E0F86800F0E3F80346002B41
:1029F00001D0012334E0BB68B3F1FF3F28D0FEF7DC
:102A000023FD02467B68D31ABA689A4202D3BB6898
:102A1000002B1DD1FB681B685B6903F08003802BD2
:102A200016D0FB6800221A63FB68202283F83D2041
:102A3000FB68002283F83E20FB681B6C43F02002F9
:102A4000FB681A64FB68002283F83C20012307E03E
:102A5000FB681B685B6903F08003802BC3D10023F4
:102A600018461037BD4680BD80B584B000AFF86011
:102A7000B9607A6034E0F86800F09BF80346002BF8
:102A800001D0012334E0BB68B3F1FF3F28D0FEF74B
:102A9000DBFC02467B68D31ABA689A4202D3BB6851
:102AA000002B1DD1FB681B685B6903F00403042B3A
:102AB00016D0FB6800221A63FB68202283F83D20B1
:102AC000FB68002283F83E20FB681B6C43F0200269
:102AD000FB681A64FB68002283F83C20012307E0AE
:102AE000FB681B685B6903F00403042BC3D100235C
:102AF00018461037BD4680BD80B584B000AFF86081
:102B0000B9607A6049E0FB681B685B6903F01003F9
:102B1000102B19D1FB681B686FF010025A61FB681B
:102B200000221A63FB68202283F83D20FB68002204
:102B300083F83E20FB681A6CFB681A64FB6800226D
:102B400083F83C20012330E0FEF77EFC02467B68E0
:102B5000D31ABA689A4202D3BB68002B1DD1FB6816
:102B60001B685B6903F04003402B16D0FB68002212
:102B70001A63FB68202283F83D20FB68002283F85B
:102B80003E20FB681B6C43F02002FB681A64FB6864
:102B9000002283F83C20012307E0FB681B685B6987
:102BA00003F04003402BAED1002318461037BD463A
:102BB00080BD80B483B000AF78607B681B685B69C0
:102BC00003F48063B3F5806F1BD17B681B686FF4DF
:102BD00080625A617B6800221A637B68202283F836
:102BE0003D207B68002283F83E207B681B6C43F00D
:102BF00004027B681A647B68002283F83C2001236E
:102C000000E0002318460C37BD4680BC704780B5F5
:102C100084B000AF78607B68002B01D10123E8E02D
:102C20007B6893F89132DBB2002B06D17B680022DF
:102C300083F89022786809F0F7FA7B68032283F81A
:102C400091227B6800225A717B681B68184602F04B
:102C500096FC7B6818687B6804330ECB02F06CFC32
:102C60000346002B05D07B68022283F891220123C2
:102C7000BFE07B681B680021184602F09AFC0346FF
:102C8000002B05D07B68022283F891220123B0E05B
:102C90000023FB733EE0FA7B796813469B001344E4
:102CA000DB000B44113301221A70FA7B796813465A
:102CB0009B001344DB000B441033FA7B1A70FA7B41
:102CC000796813469B001344DB000B441333002246
:102CD0001A70FA7B796813469B001344DB000B449F
:102CE000203300221A60FA7B796813469B00134454
:102CF000DB000B44243300221A60FB7B79685A1CEA
:102D000013469B001344DB000B4400221A60FB7B3C
:102D10000133FB737B681B79FA7B9A42BBD3002398
:102D2000FB7344E0FA7B796813469B001344DB0095
:102D30000B4403F2511300221A70FA7B7968134690
:102D40009B001344DB000B4403F5A873FA7B1A7055
:102D5000FA7B796813469B001344DB000B4403F2B3
:102D6000531300221A70FA7B796813469B001344B0
:102D7000DB000B4403F5B07300221A60FA7B79681C
:102D800013469B001344DB000B4403F5B27300228F
:102D90001A60FA7B796813469B001344DB000B44EE
:102DA00003F5B47300221A60FB7B0133FB737B686D
:102DB0001B79FA7B9A42B5D37B6818687B68043329
:102DC0000ECB02F002FC0346002B05D07B680222EA
:102DD00083F8912201230CE07B6800225A737B6800
:102DE000012283F891227B681B68184604F081FE5B
:102DF000002318461037BD4680BD80B582B000AFB5
:102E000078607B6893F89032012B01D1022316E0A1
:102E10007B68012283F890227B681B68184602F0C9
:102E200098FB0121786809F072FC7B681B681846E2
:102E300004F055FE7B68002283F890220023184698
:102E40000837BD4680BD80B588B000AF78607B682C
:102E50001B68184604F057FEB861BB6903F40043D1
:102E6000002B03D0786800F01AFB19E1BB6903F46A
:102E70008063002B13D07B681B68B3F844309AB290
:102E80007B681B6822F4806292B2A3F844207868C1
:102E900009F045FA0021786800F005F900E1BB6906
:102EA00003F48043002B0CD07B681B68B3F84430DC
:102EB0009AB27B681B6822F4804292B2A3F8442045
:102EC000EEE0BB6903F40053002B0CD07B681B6859
:102ED000B3F844309AB27B681B6822F4005292B275
:102EE000A3F84420DCE0BB6903F48053002B27D017
:102EF0007B681B68B3F840309AB27B681B6822F08D
:102F0000040292B2A3F840207B681B68B3F84030FB
:102F10009AB27B681B6822F0080292B2A3F84020A4
:102F2000786809F035FA7B681B68B3F844309AB2C8
:102F30007B681B6822F4805292B2A3F84420AFE071
:102F4000BB6903F40063002B00F083800023FB7750
:102F500010E07B681B681A46FB7F9B001A44FB7FCE
:102F6000128892B25B0020333B4423F8182CFB7F7D
:102F70000133FB77FB7F072BEBD97B681B68B3F82A
:102F800040309AB27B681B6842F0010292B2A3F80B
:102F900040207B681B68B3F840309AB27B681B689E
:102FA00022F0010292B2A3F8402000BF7B681B68A8
:102FB000B3F844309BB203F48063002BF6D07B68F7
:102FC0001B68B3F844309AB27B681B6822F48062B5
:102FD00092B2A3F844200023FB770FE0FB7F7A68CE
:102FE00012681146FA7F92000A445B0020333B448A
:102FF00033F8183C1380FB7F0133FB77FB7F072BF3
:10300000ECD97B681B68B3F840309AB27B681B68C8
:1030100042F0080292B2A3F840207B681B68B3F824
:1030200044309AB27B681B6822F4006292B2A3F823
:1030300044207B681B68B3F840309AB27B681B68F9
:1030400042F0040292B2A3F84020786809F086F9B1
:1030500026E0BB6903F40073002B0FD07B681B686C
:10306000B3F844309AB27B681B6822F4007292B2C3
:10307000A3F84420786809F044F911E0BB6903F42F
:103080008073002B0CD07B681B68B3F844309AB275
:103090007B681B6822F4807292B2A3F8442000BFC0
:1030A0002037BD4680BD80B582B000AF78600B464A
:1030B000FB707B6893F89032012B01D1022312E060
:1030C0007B68012283F890227B68FA785A737B68C8
:1030D0001B68FA781146184604F0EEFC7B68002263
:1030E00083F89022002318460837BD4680BD80B57E
:1030F00084B000AF7860084611461A460346FB705C
:103100000B463B801346BB700023FB7297F90330DC
:10311000002B0EDAFB7803F0070213469B001344E2
:10312000DB0010337A681344FB60FB6801225A709D
:103130000EE0FB7803F0070213469B001344DB000C
:1031400003F5A8737A681344FB60FB6800225A7089
:10315000FB7803F00703DAB2FB681A703A88FB6861
:103160001A61FB68BA78DA70BB78022B02D1FB686F
:1031700000221A717B6893F89032012B01D102234F
:103180000EE07B68012283F890227B681B68F96857
:10319000184602F037FA7B68002283F89022FB7A07
:1031A00018461037BD4680BD80B584B000AF78604A
:1031B0000B46FB7097F90330002B0EDAFB7803F017
:1031C000070213469B001344DB0010337A68134454
:1031D000FB60FB6801225A700EE0FB7803F00702E7
:1031E00013469B001344DB0003F5A8737A6813446D
:1031F000FB60FB6800225A70FB7803F00703DAB229
:10320000FB681A707B6893F89032012B01D102237E
:103210000EE07B68012283F890227B681B68F968C6
:10322000184602F0AFFD7B68002283F8902200234D
:1032300018461037BD4680BD80B586B000AFF86037
:103240007A603B600B46FB72FB7A03F00702134681
:103250009B001344DB0003F5A873FA6813447B61F9
:103260007B697A685A617B693A689A617B69002256
:10327000DA617B6900225A70FB7A03F00703DAB245
:103280007B691A70FB681B687969184602F066FF53
:10329000002318461837BD4680BD80B483B000AF08
:1032A00078600B46FB70FB7803F0070279681346E1
:1032B0009B001344DB000B4403F5B6731B681846F0
:1032C0000C37BD4680BC704780B586B000AFF86053
:1032D0007A603B600B46FB72FB7A03F007021346F1
:1032E0009B001344DB001033FA6813447B617B6955
:1032F0007A685A617B693A689A617B69012283F82E
:1033000024207B693A681A627B690022DA617B6952
:1033100001225A70FB7A03F00703DAB27B691A7054
:10332000FB681B687969184602F018FF00231846ED
:103330001837BD4680BD80B584B000AF78600B46BD
:10334000FB70FB7803F007037A681279934201D986
:1033500001234CE097F90330002B0EDAFB7803F0E1
:10336000070213469B001344DB0010337A681344B2
:10337000FB60FB6801225A700CE0FA7813469B0050
:103380001344DB0003F5A8737A681344FB60FB6801
:1033900000225A70FB6801229A70FB7803F0070341
:1033A000DAB2FB681A707B6893F89032012B01D176
:1033B00002231CE07B68012283F890227B681B6853
:1033C000F968184604F07BFAFB7803F00703002B3A
:1033D00008D17B681A687B6803F526731946104686
:1033E00004F0A0FB7B68002283F89022002318469B
:1033F0001037BD4680BD80B584B000AF78600B4605
:10340000FB70FB7803F00F037A681279934201D9BD
:10341000012340E097F90330002B0EDAFB7803F02C
:10342000070213469B001344DB0010337A681344F1
:10343000FB60FB6801225A700EE0FB7803F0070284
:1034400013469B001344DB0003F5A8737A6813440A
:10345000FB60FB6800225A70FB6800229A70FB78C0
:1034600003F00703DAB2FB681A707B6893F89032B6
:10347000012B01D102230EE07B68012283F8902208
:103480007B681B68F968184604F069FA7B680022BB
:1034900083F89022002318461037BD4680BD80B5C2
:1034A00096B000AF7860BBE37B681B68B3F844302C
:1034B000A7F84E30B7F84E30DBB203F00F0387F8B1
:1034C0004D3097F84D30002B40F07581B7F84E30F5
:1034D00003F01003002B4ED17B681B681B889BB246
:1034E00023F4E14323F07003FB817B681A68FB89B6
:1034F0006FEA43436FEA53439BB213807B681033F8
:103500007B657B681B68B3F850309BB21A467B6DB5
:103510001B78DB00134402335B007A6812681344A3
:1035200003F580631B88C3F309027B6DDA617B6D51
:103530005A697B6DDB691A447B6D5A61002178689A
:1035400008F0C5FE7B685B7BDBB2002B00F0688374
:103550007B6D9B69002B40F063837B685B7BDBB2F8
:1035600063F07F03DAB27B681B68A3F84C207B68AA
:1035700000225A7354E37B6803F5A8737B657B686C
:103580001B681B88A7F84A30B7F84A3003F4006379
:10359000002B34D07B681B68B3F850309BB21A46BE
:1035A0007B6D1B78DB00134406335B007A6812687E
:1035B000134403F580631B88C3F309027B6DDA6152
:1035C0007B6818687B6803F526717B6DDA887B6DF4
:1035D000DB699BB204F0F6FA7B681B681B889AB221
:1035E00040F68F7313403B827B681B683A8A42F037
:1035F000800292B21A80786808F03CFE10E3B7F9B6
:103600004A30002B80F20C837B681B681B889AB2BF
:1036100040F68F731340FB837B681B68FA8B42F084
:10362000800292B21A807B681B68B3F850309BB25C
:103630001A467B6D1B78DB00134406335B007A6807
:103640001268134403F580631B88C3F309027B6D82
:10365000DA617B6DDB69002B19D07B6D5B69002B18
:1036600015D07B6818687B6D59697B6DDA887B6D36
:10367000DB699BB204F0A6FA7B6D5A697B6DDB694E
:103680001A447B6D5A610021786808F005FE7B685A
:103690001B681B88A7F84A30B7F84A3003F4006368
:1036A000002B40F0BD82B7F84A3003F44053B3F525
:1036B000405F00F0B5827B681B68BB617B681B685C
:1036C000B3F850309BB21A46BB691344BB61BB6967
:1036D00003F20C437B617B691B889BB2C3F3090334
:1036E0009AB27B691A807B6D1B693E2B1DD97B6D5D
:1036F0001B695B097B647B6D1B6903F01F03002B57
:1037000002D17B6C013B7B647B691B889AB27B6C2A
:103710009BB29B029BB213439BB26FEA43436FEA97
:1037200053439AB27B691A8026E07B6D1B69002B9C
:103730000AD17B691B889BB26FEA43436FEA53430C
:103740009AB27B691A8017E07B6D1B695B087B640A
:103750007B6D1B6903F00103002B02D07B6C0133EE
:103760007B647B691B889AB27B6C9BB29B029BB289
:1037700013439AB27B691A807B681B681B889BB2D3
:1037800023F4804323F070037B827B8A83F480538D
:103790007B827B8A83F400537B827B681A687B8AF6
:1037A00043F07F4343F47F0343F4004343F080033B
:1037B0009BB2138034E27B681B681A4697F84D3041
:1037C0009B0013441B88A7F84A30B7F94A30002BF6
:1037D00080F2FC807B681B681A4697F84D309B008E
:1037E00013441B889AB240F68F731340A7F84830F1
:1037F0007B681B681A4697F84D309B001344B7F856
:10380000482042F0800292B21A8097F84D20134669
:103810009B001344DB0003F5A8737A6813447B65AF
:103820007B6D1B7B002B25D17B681B68B3F8503068
:103830009BB21A467B6D1B78DB00134406335B009A
:103840007A681268134403F580631B88C3F3090385
:10385000A7F85030B7F85030002B00F092807B680A
:1038600018687B6D59697B6DDA88B7F8503004F0C1
:10387000A9F986E07B6DDB78022B0AD1B7F84A30D4
:103880001A46796D786800F0D9F90346A7F85030E8
:1038900077E07B681B681A467B6D1B789B0013449E
:1038A0001B889BB223F4E04323F07003A7F8523047
:1038B0007B681B681A467B6D1B789B001A44B7F81F
:1038C000523043F07F4343F47F0343F4004343F01B
:1038D000C0039BB213807B681B681A467B6D1B7804
:1038E0009B0013441B889BB203F48043002B24D01D
:1038F0007B681B68B3F850309BB21A467B6D1B780F
:10390000DB00134402335B007A681268134403F54A
:1039100080631B88C3F30903A7F85030B7F8503011
:10392000002B2ED07B6818687B6D59697B6D1A89D6
:10393000B7F8503004F046F923E07B681B68B3F811
:1039400050309BB21A467B6D1B78DB001344063364
:103950005B007A681268134403F580631B88C3F325
:103960000903A7F85030B7F85030002B09D07B6816
:1039700018687B6D59697B6D5A89B7F8503004F02F
:1039800021F97B6DDA69B7F850301A447B6DDA6142
:103990007B6D5A69B7F850301A447B6D5A617B6D64
:1039A0009B69002B05D0B7F850207B6D1B699A42AC
:1039B00006D27B6D1B781946786808F06DFC05E02F
:1039C0007B681B68796D184602F0C8FBB7F84A306F
:1039D00003F08003002B00F0238197F84D2013465D
:1039E0009B001344DB0010337A6813447B657B68CB
:1039F0001B681A4697F84D309B0013441B889BB2F6
:103A000023F4E14323F07003A7F842307B681B687E
:103A10001A4697F84D309B001A44B7F842306FEAC7
:103A200043436FEA53439BB213807B6DDB78012BDA
:103A300040F0A2807B6D00229A617B6D1B7B002B86
:103A400000F09380B7F84A3003F04003002B46D0D3
:103A50007B6D5B78002B26D17B681B687B627B6863
:103A60001B68B3F850309BB21A467B6A13447B62E2
:103A70007B6D1B781A017B6A134403F204433B629B
:103A80003B6A1B889BB2C3F309039AB23B6A1A8054
:103A90003B6A1B889BB26FEA43436FEA53439AB277
:103AA0003B6A1A8061E07B6D5B78012B5DD17B689E
:103AB0001B68FB627B681B68B3F850309BB21A46E8
:103AC000FB6A1344FB627B6D1B781A01FB6A13448B
:103AD00003F20443BB62BB6A00221A8045E07B68A4
:103AE0001B68FB637B6D5B78002B26D17B681B68B2
:103AF0007B637B681B68B3F850309BB21A467B6BC4
:103B000013447B637B6D1B781A017B6B134403F2B8
:103B10000C433B633B6B1B889BB2C3F309039AB214
:103B20003B6B1A803B6B1B889BB26FEA43436FEA87
:103B300053439AB23B6B1A8017E07B6D5B78012B85
:103B400013D17B681B68B3F850309BB21A46FB6BED
:103B50001344FB637B6D1B781A01FB6B134403F268
:103B60000C43BB63BB6B00221A807B6D1B7819462C
:103B7000786808F0ACFB53E0B7F84A3003F4807380
:103B8000002B46D17B681B68B3F850309BB21A46B5
:103B90007B6D1B78DB00134402335B007A6812688C
:103BA000134403F580631B88C3F30903A7F840306F
:103BB0007B6D9A69B7F840309A4207D97B6D9A6954
:103BC000B7F84030D21A7B6D9A6102E07B6D00221B
:103BD0009A617B6D9B69002B06D17B6D1B78194622
:103BE000786808F074FB1BE07B6D5A69B7F84030C9
:103BF0001A447B6D5A617B6DDA69B7F840301A441C
:103C00007B6DDA617B681B68796D184602F0A6FA55
:103C100006E0B7F84A301A46796D786800F01BF96B
:103C20007B681B68B3F844309BB21BB2002BFFF6D5
:103C30003BAC002318465837BD4680BD80B588B0E0
:103C400000AFF860B9601346FB80FB8803F4804343
:103C5000002B7ED0FB681B68B3F850309BB21A462D
:103C6000BB681B78DB00134402335B00FA68126800
:103C7000134403F580631B88C3F309037B83BB688C
:103C80009A697B8B9A4206D3BB689A697B8BD21A5E
:103C9000BB689A6102E0BB6800229A61BB689B69BD
:103CA000002B23D1FB681B681A46BB681B789B005E
:103CB00013441B889BB223F4804323F070033B839F
:103CC0003B8B83F400533B83FB681B681A46BB683D
:103CD0001B789B001A443B8B43F07F4343F47F03E4
:103CE00043F4004343F080039BB21380FB8803F04E
:103CF0004003002B1FD0FB681B681A46BB681B786B
:103D00009B0013441B889BB223F4E04323F0700311
:103D1000FB82FB681B681A46BB681B789B001A4431
:103D2000FB8A43F07F4343F47F0343F4004343F0B3
:103D3000C0039BB213807B8B002B00F08780FB6855
:103D40001868BB685969BB681A897B8B03F03AFF16
:103D50007CE0FB681B68B3F850309BB21A46BB6826
:103D60001B78DB00134406335B00FA6812681344C7
:103D700003F580631B88C3F309037B83BB689A69DF
:103D80007B8B9A4206D3BB689A697B8BD21ABB683D
:103D90009A6102E0BB6800229A61BB689B69002BB4
:103DA00023D1FB681B681A46BB681B789B00134431
:103DB0001B889BB223F4804323F07003FB83FB8BAF
:103DC00083F40053FB83FB681B681A46BB681B78AF
:103DD0009B001A44FB8B43F07F4343F47F0343F47F
:103DE000004343F080039BB21380FB8803F0400341
:103DF000002B1FD1FB681B681A46BB681B789B0011
:103E000013441B889BB223F4E04323F07003BB836D
:103E1000FB681B681A46BB681B789B001A44BB8B67
:103E200043F07F4343F47F0343F4004343F0C00374
:103E30009BB213807B8B002B08D0FB681868BB6893
:103E40005969BB685A897B8B03F0BCFE7B8B184693
:103E50002037BD4680BD80B5A4B000AFF860B96022
:103E60001346FB80FB8803F04003002B00F0DD814C
:103E7000FB681B68B3F850309BB21A46BB681B78CE
:103E8000DB00134402335B00FA681268134403F545
:103E900080631B88C3F30903A7F88630BB689A695F
:103EA000B7F886309A4207D9BB689A69B7F8863066
:103EB000D21ABB689A6102E0BB6800229A61BB68B3
:103EC0009B69002B40F0B980BB685B78002B26D142
:103ED000FB681B68FB62FB681B68B3F850309BB241
:103EE0001A46FB6A1344FB62BB681B781A01FB6A23
:103EF000134403F20443BB62BB6A1B889BB2C3F347
:103F000009039AB2BB6A1A80BB6A1B889BB26FEA2C
:103F100043436FEA53439AB2BB6A1A801AE0BB6804
:103F20005B78012B16D1FB681B687B63FB681B6801
:103F3000B3F850309BB21A467B6B13447B63BB686B
:103F40001B781A017B6B134403F204433B633B6B06
:103F500000221A80FB681B687B62BB685B78002BC1
:103F600026D1FB681B68FB61FB681B68B3F8503007
:103F70009BB21A46FB691344FB61BB681B781A01AC
:103F8000FB69134403F20C43BB61BB691B889BB202
:103F9000C3F309039AB2BB691A80BB691B889BB241
:103FA0006FEA43436FEA53439AB2BB691A8017E042
:103FB000BB685B78012B13D1FB681B68B3F85030EA
:103FC0009BB21A467B6A13447B62BB681B781A015A
:103FD0007B6A134403F20C433B623B6A00221A8063
:103FE000BB681B781946F86808F071F9FB8803F480
:103FF0008043002B00F0FC82FB681B681A46BB68FC
:104000001B789B0013441B889BB223F4E04323F0EE
:104010007003FB82FB681B681A46BB681B789B0019
:104020001A44FB8A43F07F4343F47F0343F4404345
:1040300043F080039BB21380DAE2FB8803F48043F1
:10404000002B21D0FB681B681A46BB681B789B00BD
:1040500013441B889BB223F4E04323F07003A7F8BA
:104060008A30FB681B681A46BB681B789B001A44A1
:10407000B7F88A3043F07F4343F47F0343F440436F
:1040800043F080039BB21380BB6893F82430012B6C
:1040900040F0AE82BB685A69B7F886301A44BB68F4
:1040A0005A61BB68DA69B7F886301A44BB68DA61CE
:1040B000BB681A6ABB681B699A420BD3BB681B6951
:1040C000C7F88C30BB681A6AD7F88C30D21ABB6834
:1040D0001A6217E0BB681B6A002B08D1B7F886305C
:1040E000C7F88C30BB68002283F824200AE0BB6844
:1040F000002283F82420BB681B6AC7F88C30BB6899
:1041000000221A62BB685B78002B65D1FB681B68D4
:10411000FB63FB681B68B3F850309BB21A46FB6B1D
:104120001344FB63BB681B781A01FB6B134403F257
:104130000443BB63BB6B1B889BB2C3F309039AB2F6
:10414000BB6B1A80D7F88C303E2B1DD9D7F88C303A
:104150005B09BB64D7F88C3003F01F03002B02D13E
:10416000BB6C013BBB64BB6B1B889AB2BB6C9BB244
:104170009B029BB213439BB26FEA43436FEA5343E4
:104180009AB2BB6B1A8044E0D7F88C30002B0AD16E
:10419000BB6B1B889BB26FEA43436FEA53439AB2EF
:1041A000BB6B1A8035E0D7F88C305B08BB64D7F85E
:1041B0008C3003F00103002B02D0BB6C0133BB64D5
:1041C000BB6B1B889AB2BB6C9BB29B029BB2134326
:1041D0009AB2BB6B1A801CE0BB685B78012B18D1CC
:1041E000FB681B687B64FB681B68B3F850309BB2AC
:1041F0001A467B6C13447B64BB681B781A017B6C8A
:10420000134403F204433B64D7F88C309AB23B6CFE
:104210001A80FB681868BB685969BB681A89D7F8A7
:104220008C309BB203F089FCE2E1FB681B68B3F8B9
:1042300050309BB21A46BB681B78DB001344063330
:104240005B00FA681268134403F580631B88C3F3AC
:104250000903A7F88630BB689A69B7F886309A4296
:1042600007D3BB689A69B7F88630D21ABB689A61DF
:1042700002E0BB6800229A61BB689B69002B40F09A
:10428000C080BB685B78002B26D1FB681B68FB678E
:10429000FB681B68B3F850309BB21A46FB6F13449F
:1042A000FB67BB681B781A01FB6F134403F20443DE
:1042B000BB67BB6F1B889BB2C3F309039AB2BB6F8A
:1042C0001A80BB6F1B889BB26FEA43436FEA53436C
:1042D0009AB2BB6F1A801AE0BB685B78012B16D1CB
:1042E000FB681B687B66FB681B68B3F850309BB2A9
:1042F0001A467B6E13447B66BB681B781A017B6E83
:10430000134403F204433B663B6E00221A80FB68B1
:104310001B687B67BB685B78002B2BD1FB681B6835
:10432000FB66FB681B68B3F850309BB21A46FB6E05
:104330001344FB66BB681B781A01FB6E134403F23F
:104340000C43C7F88030D7F880301B889BB2C3F38A
:1043500009039AB2D7F880301A80D7F880301B88CA
:104360009BB26FEA43436FEA53439AB2D7F8803067
:104370001A8017E0BB685B78012B13D1FB681B68C0
:10438000B3F850309BB21A467B6F13447B67BB680F
:104390001B781A017B6F134403F20C433B673B6F9E
:1043A00000221A80BB681B781946F86807F08FFF57
:1043B000FB8803F48043002B40F01A81FB681B68E4
:1043C0001A46BB681B789B0013441B889BB223F4DE
:1043D000E04323F07003A7F88830FB681B681A4697
:1043E000BB681B789B001A44B7F8883043F07F43C2
:1043F00043F47F0343F4404343F080039BB21380B4
:10440000F6E0FB8803F48043002B21D1FB681B6896
:104410001A46BB681B789B0013441B889BB223F48D
:10442000E04323F07003A7F84E30FB681B681A4680
:10443000BB681B789B001A44B7F84E3043F07F43AB
:1044400043F47F0343F4404343F080039BB2138063
:10445000BB6893F82430012B40F0CA80BB685A69CE
:10446000B7F886301A44BB685A61BB68DA69B7F896
:1044700086301A44BB68DA61BB681A6ABB681B697C
:104480009A420BD3BB681B69C7F88C30BB681A6AA9
:10449000D7F88C30D21ABB681A6217E0BB681B6A67
:1044A000002B08D1B7F88630C7F88C30BB680022E3
:1044B00083F824200AE0BB681B6AC7F88C30BB680D
:1044C00000221A62BB68002283F82420FB681B6864
:1044D0007B65BB685B78002B65D1FB681B68FB655F
:1044E000FB681B68B3F850309BB21A46FB6D13444F
:1044F000FB65BB681B781A01FB6D134403F20C4388
:10450000BB65BB6D1B889BB2C3F309039AB2BB6D3D
:104510001A80D7F88C303E2B1DD9D7F88C305B0928
:10452000BB66D7F88C3003F01F03002B02D1BB6EA3
:10453000013BBB66BB6D1B889AB2BB6E9BB29B02F4
:104540009BB213439BB26FEA43436FEA53439AB261
:10455000BB6D1A8041E0D7F88C30002B0AD1BB6DBF
:104560001B889BB26FEA43436FEA53439AB2BB6D19
:104570001A8032E0D7F88C305B08BB66D7F88C30F5
:1045800003F00103002B02D0BB6E0133BB66BB6D91
:104590001B889AB2BB6E9BB29B029BB213439AB22A
:1045A000BB6D1A8019E0BB685B78012B15D1FB68E5
:1045B0001B68B3F850309BB21A467B6D13447B6581
:1045C000BB681B781A017B6D134403F20C433B65F7
:1045D000D7F88C309AB23B6D1A80FB681868BB68BC
:1045E0005969BB685A89D7F88C309BB203F0A5FA99
:1045F000FB681B681A46BB681B789B0013441B882A
:104600009BB223F4E04323F04003BB82BB8A83F0D8
:104610001003BB82BB8A83F02003BB82FB681B684C
:104620001A46BB681B789B001A44BB8A43F07F4341
:1046300043F47F0343F4004343F080039BB21380B1
:10464000002318469037BD4680BD80B487B000AFC8
:10465000F8607B600B467B8113463B817B8903F0CE
:1046600080039BB2002B0BD07B8903F0070213461B
:104670009B001344DB001033FA6813447B6109E0AC
:104680007A8913469B001344DB0003F5A873FA688C
:1046900013447B613B89002B07D17B6900221A738D
:1046A0007B689AB27B69DA800BE07B6901221A731E
:1046B0007B689AB27B691A817B681B0C9AB27B6912
:1046C0005A81002318461C37BD4680BC7047000045
:1046D00080B586B000AF78607B68002B01D10123E4
:1046E00072E27B681B6803F00103002B00F08780F7
:1046F000924B5B6803F00C03042B0CD08F4B5B6870
:1047000003F00C03082B12D18C4B5B6803F480334D
:10471000B3F5803F0BD1894B1B6803F40033002BAA
:104720006CD07B685B68002B68D101234CE27B680E
:104730005B68B3F5803F06D1804B1B687F4A43F42A
:10474000803313602EE07B685B68002B0CD17B4BC1
:104750001B687A4A23F480331360784B1B68774ACE
:1047600023F4802313601DE07B685B68B3F5A02F02
:104770000CD1724B1B68714A43F4802313606F4B5A
:104780001B686E4A43F4803313600BE06B4B1B686D
:104790006A4A23F480331360684B1B68674A23F42A
:1047A000802313607B685B68002B13D0FCF74CFE02
:1047B000386108E0FCF748FE02463B69D31A642BD7
:1047C00001D9032300E25D4B1B6803F40033002B87
:1047D000F0D014E0FCF738FE386108E0FCF734FE56
:1047E00002463B69D31A642B01D90323ECE1534BF6
:1047F0001B6803F40033002BF0D100E000BF7B689E
:104800001B6803F00203002B63D04C4B5B6803F082
:104810000C03002B0BD0494B5B6803F00C03082BF7
:104820001CD1464B5B6803F48033002B16D1434BFD
:104830001B6803F00203002B05D07B681B69012B6A
:1048400001D00123C0E13D4B1B6823F0F8027B68D7
:104850005B69DB00394913430B603AE07B681B69F5
:10486000002B20D0364B01221A60FCF7EDFD386199
:1048700008E0FCF7E9FD02463B69D31A022B01D997
:104880000323A1E12D4B1B6803F00203002BF0D0A2
:104890002A4B1B6823F0F8027B685B69DB00274921
:1048A00013430B6015E0264B00221A60FCF7CCFD89
:1048B000386108E0FCF7C8FD02463B69D31A022BB9
:1048C00001D9032380E11D4B1B6803F00203002B79
:1048D000F0D17B681B6803F00803002B3AD07B689B
:1048E0009B69002B19D0174B01221A60FCF7ACFD15
:1048F000386108E0FCF7A8FD02463B69D31A022B99
:1049000001D9032360E10D4B5B6A03F00203002B26
:10491000F0D0012000F0FEFA1CE00A4B00221A60E1
:10492000FCF792FD38610FE0FCF78EFD02463B6913
:10493000D31A022B08D9032346E100BF001002401E
:104940000000424280044242924B5B6A03F0020341
:10495000002BE9D17B681B6803F00403002B00F0F7
:10496000A6800023FB758B4BDB6903F08053002B83
:104970000DD1884BDB69874A43F08053D361854B67
:10498000DB6903F08053BB60BB680123FB75824B7E
:104990001B6803F48073002B18D17F4B1B687E4A81
:1049A00043F480731360FCF74FFD386108E0FCF7B7
:1049B0004BFD02463B69D31A642B01D9032303E163
:1049C000754B1B6803F48073002BF0D07B68DB68A9
:1049D000012B06D16F4B1B6A6E4A43F00103136231
:1049E0002DE07B68DB68002B0CD16A4B1B6A694A9F
:1049F00023F001031362674B1B6A664A23F004032A
:104A000013621CE07B68DB68052B0CD1614B1B6AD1
:104A1000604A43F0040313625E4B1B6A5D4A43F035
:104A2000010313620BE05B4B1B6A5A4A23F001033C
:104A30001362584B1B6A574A23F0040313627B68C6
:104A4000DB68002B15D0FCF7FFFC38610AE0FCF7AF
:104A5000FBFC02463B69D31A41F28832934201D9EA
:104A60000323B1E04B4B1B6A03F00203002BEED093
:104A700014E0FCF7E9FC38610AE0FCF7E5FC0246CB
:104A80003B69D31A41F28832934201D903239BE058
:104A9000404B1B6A03F00203002BEED1FB7D012B80
:104AA00005D13C4BDB693B4A23F08053D3617B68E3
:104AB000DB69002B00F08780364B5B6803F00C034A
:104AC000082B61D07B68DB69022B46D1334B002277
:104AD0001A60FCF7B9FC386108E0FCF7B5FC024647
:104AE0003B69D31A022B01D903236DE0294B1B68C4
:104AF00003F00073002BF0D17B681B6AB3F5803F95
:104B000008D1244B5B6823F400327B689B68214901
:104B100013434B601F4B5B6823F474127B68196A64
:104B20007B685B6A0B431B4913434B601B4B0122A1
:104B30001A60FCF789FC386108E0FCF785FC024646
:104B40003B69D31A022B01D903233DE0114B1B68AB
:104B500003F00073002BF0D035E0104B00221A60F8
:104B6000FCF772FC386108E0FCF76EFC02463B691A
:104B7000D31A022B01D9032326E0064B1B6803F04E
:104B80000073002BF0D11EE07B68DB69012B07D19D
:104B9000012319E000100240007000406000424212
:104BA0000B4B5B68FB60FB6803F480327B681B6A1D
:104BB0009A4206D1FB6803F470127B685B6A9A42E2
:104BC00001D0012300E0002318461837BD4680BD00
:104BD0000010024080B584B000AF786039607B6817
:104BE000002B01D10123D0E06A4B1B6803F00703BF
:104BF0003A689A4210D9674B1B6823F0070265494F
:104C00003B6813430B60634B1B6803F007033A6870
:104C10009A4201D00123B8E07B681B6803F00203CD
:104C2000002B20D07B681B6803F00403002B05D009
:104C3000594B5B68584A43F4E06353607B681B68D8
:104C400003F00803002B05D0534B5B68524A43F432
:104C500060535360504B5B6823F0F0027B689B68A5
:104C60004D4913434B607B681B6803F00103002B25
:104C700040D07B685B68012B07D1474B1B6803F46E
:104C80000033002B15D101237FE07B685B68022B8A
:104C900007D1414B1B6803F00073002B09D101239E
:104CA00073E03D4B1B6803F00203002B01D101238D
:104CB0006BE0394B5B6823F003027B685B68364925
:104CC00013434B60FCF7C0FBF8600AE0FCF7BCFB49
:104CD0000246FB68D31A41F28832934201D903237A
:104CE00053E02D4B5B6803F00C027B685B689B0014
:104CF0009A42EBD1274B1B6803F007033A689A42AC
:104D000010D2244B1B6823F0070222493B6813434F
:104D10000B60204B1B6803F007033A689A4201D0EE
:104D2000012332E07B681B6803F00403002B08D0EA
:104D3000194B5B6823F4E0627B68DB681649134318
:104D40004B607B681B6803F00803002B09D0124BF3
:104D50005B6823F460527B681B69DB000E491343D8
:104D60004B6000F021F802460B4B5B681B0903F017
:104D70000F030A49CB5C22FA03F3094A1360094B7B
:104D80001B681846FCF7CCF9002318461037BD46BF
:104D900080BD00BF0020024000100240F4D800088F
:104DA000200000202400002080B487B000AF002342
:104DB000FB600023BB6000237B6100237B6000233A
:104DC0003B611E4B5B68FB60FB6803F00C03042B2C
:104DD00002D0082B03D027E0194B3B6127E0FB688A
:104DE0009B0C03F00F03174AD35C7B60FB6803F452
:104DF0008033002B10D0114B5B685B0C03F0010378
:104E0000114AD35CBB607B680D4A03FB02F2BB68AE
:104E1000B2FBF3F37B6104E07B680C4A02FB03F313
:104E20007B617B693B6102E0054B3B6100BF3B69F5
:104E300018461C37BD4680BC704700BF00100240BA
:104E400000127A000CD900081CD9000800093D00A6
:104E500080B400AF024B1B681846BD4680BC70474B
:104E60002000002080B500AFFFF7F2FF0246054B9F
:104E70005B681B0A03F007030349CB5C22FA03F3C8
:104E8000184680BD0010024004D9000880B500AF6C
:104E9000FFF7DEFF0246054B5B68DB0A03F0070302
:104EA0000349CB5C22FA03F3184680BD0010024090
:104EB00004D9000880B483B000AF786039607B68A3
:104EC0000F221A60114B5B6803F003027B685A6083
:104ED0000E4B5B6803F0F0027B689A600B4B5B68DB
:104EE00003F4E0627B68DA60084B5B68DB0803F47C
:104EF000E0627B681A61064B1B6803F007023B689F
:104F00001A6000BF0C37BD4680BC704700100240DD
:104F10000020024080B485B000AF78600A4B1B6867
:104F20000A4AA2FB03235B0A7A6802FB03F3FB60D5
:104F300000BFFB685A1EFA60002BF9D100BF00BF0A
:104F40001437BD4680BC704720000020D34D62104E
:104F500080B586B000AF786000233B610023FB6022
:104F60007B681B6803F00103002B7DD00023FB75D9
:104F70004F4BDB6903F08053002B0DD14C4BDB69A9
:104F80004B4A43F08053D361494BDB6903F08053B4
:104F9000BB60BB680123FB75464B1B6803F4807341
:104FA000002B18D1434B1B68424A43F480731360B3
:104FB000FCF74AFA386108E0FCF746FA02463B691A
:104FC000D31A642B01D903236DE03A4B1B6803F419
:104FD0008073002BF0D0364B1B6A03F44073FB60E8
:104FE000FB68002B2ED07B685B6803F44073FA6883
:104FF0009A4227D02E4B1B6A23F44073FB602E4B42
:1050000001221A602C4B00221A60294AFB681362A5
:10501000FB6803F00103002B14D0FCF715FA38618C
:105020000AE0FCF711FA02463B69D31A41F28832D2
:10503000934201D9032336E01D4B1B6A03F00203A0
:10504000002BEED01A4B1B6A23F440727B685B681E
:10505000174913430B62FB7D012B05D1144BDB6910
:10506000134A23F08053D3617B681B6803F002036B
:10507000002B08D00E4B5B6823F440427B689B6892
:105080000B4913434B607B681B6803F01003002B34
:1050900008D0074B5B6823F480027B68DB68044917
:1050A00013434B60002318461837BD4680BD00BF30
:1050B00000100240007000404004424280B582B0BF
:1050C00000AF78607B68002B01D1012341E07B6851
:1050D00093F83D30DBB2002B06D17B68002283F8C9
:1050E0003C20786800F039F87B68022283F83D2084
:1050F0007B681A687B6804331946104600F09CF9F7
:105100007B68012283F846207B68012283F83E20D9
:105110007B68012283F83F207B68012283F84020CE
:105120007B68012283F841207B68012283F84220BA
:105130007B68012283F843207B68012283F84420A6
:105140007B68012283F845207B68012283F83D209B
:10515000002318460837BD4680BD80B483B000AF39
:10516000786000BF0C37BD4680BC704780B485B006
:1051700000AF78607B6893F83D30DBB2012B01D043
:1051800001233AE07B68022283F83D207B681B689C
:10519000DA687B681B6842F00102DA607B681B6892
:1051A000184A93420ED07B681B68B3F1804F09D038
:1051B0007B681B68144A934204D07B681B68134ABF
:1051C000934211D17B681B689B6803F00703FB6067
:1051D000FB68062B10D07B681B681A687B681B680D
:1051E00042F001021A6007E07B681B681A687B685E
:1051F0001B6842F001021A60002318461437BD46AE
:1052000080BC7047002C01400004004000080040B2
:1052100080B584B000AF78607B681B68DB68FB609A
:105220007B681B681B69BB60BB6803F00203002B33
:1052300020D0FB6803F00203002B1BD07B681B68A7
:105240006FF002021A617B6801221A777B681B6883
:105250009B6903F00303002B03D0786800F0D1F8BA
:1052600005E0786800F0C4F8786800F0D3F87B684F
:1052700000221A77BB6803F00403002B20D0FB68E0
:1052800003F00403002B1BD07B681B686FF0040243
:105290001A617B6802221A777B681B689B6903F49A
:1052A0004073002B03D0786800F0ABF805E0786815
:1052B00000F09EF8786800F0ADF87B6800221A775D
:1052C000BB6803F00803002B20D0FB6803F0080341
:1052D000002B1BD07B681B686FF008021A617B688B
:1052E00004221A777B681B68DB6903F00303002B39
:1052F00003D0786800F085F805E0786800F078F869
:10530000786800F087F87B6800221A77BB6803F0A2
:105310001003002B20D0FB6803F01003002B1BD0E0
:105320007B681B686FF010021A617B6808221A778D
:105330007B681B68DB6903F44073002B03D078683B
:1053400000F05FF805E0786800F052F8786800F047
:1053500061F87B6800221A77BB6803F00103002B19
:105360000CD0FB6803F00103002B07D07B681B689F
:105370006FF001021A617868FBF744FEBB6803F026
:105380008003002B0CD0FB6803F08003002B07D0B8
:105390007B681B686FF080021A61786800F0C3F8C0
:1053A000BB6803F04003002B0CD0FB6803F0400304
:1053B000002B07D07B681B686FF040021A61786889
:1053C00000F031F8BB6803F02003002B0CD0FB6821
:1053D00003F02003002B07D07B681B686FF02002CE
:1053E0001A61786800F096F800BF1037BD4680BD9E
:1053F00080B483B000AF786000BF0C37BD4680BC7E
:10540000704780B483B000AF786000BF0C37BD46F2
:1054100080BC704780B483B000AF786000BF0C37A9
:10542000BD4680BC704780B483B000AF786000BFD9
:105430000C37BD4680BC704780B485B000AF786043
:1054400039607B681B68FB607B682F4A93420BD0F6
:105450007B68B3F1804F07D07B682C4A934203D01E
:105460007B682B4A934208D1FB6823F07003FB60F2
:105470003B685B68FA681343FB607B68224A93428F
:105480000BD07B68B3F1804F07D07B681F4A9342F3
:1054900003D07B681E4A934208D1FB6823F4407313
:1054A000FB603B68DB68FA681343FB60FB6823F032
:1054B00080023B685B691343FB607B68FA681A6093
:1054C0003B689A687B68DA623B681A687B689A6214
:1054D0007B680D4A934203D13B681A697B681A6363
:1054E0007B6801225A617B681B6903F00103002B72
:1054F00005D07B681B6923F001027B681A6100BF3D
:105500001437BD4680BC7047002C014000040040A9
:105510000008004080B483B000AF786000BF0C3753
:10552000BD4680BC704780B483B000AF786000BFD8
:105530000C37BD4680BC704780B485B000AFF860C2
:10554000384680E80E00002318461437BD4680BC5C
:10555000704780B485B000AF78607B680022A3F804
:1055600044204FF43F43FB60FB689AB27B68A3F88A
:105570004020002318461437BD4680BC704780B4D5
:1055800085B000AF78604FF43F43FB607B68B3F8B1
:1055900040309AB2FB689BB2DB439BB213409AB295
:1055A0007B68A3F84020002318461437BD4680BC12
:1055B000704780B483B000AF78600B46FB70002367
:1055C00018460C37BD4680BC704780B485B000AF2C
:1055D000F860384680E80E00FB680122A3F84020FE
:1055E000FB680022A3F84020FB680022A3F84420B7
:1055F000FB680022A3F85020002318461437BD464C
:1056000080BC704780B49DB000AF786039600023E3
:1056100087F86F307A683B681B789B0013441B88BF
:105620009BB223F4EC4323F07003A7F86C303B6883
:10563000DB78032B1FD801A252F823F04D56000847
:10564000695600087F5600085B560008B7F86C30B2
:1056500043F40073A7F86C3012E0B7F86C3043F4F1
:10566000C063A7F86C300BE0B7F86C3043F480638C
:10567000A7F86C3004E0012387F86F3000E000BF2A
:105680007A683B681B789B001A44B7F86C3043F08B
:105690007F4343F47F0343F4004343F080039BB212
:1056A00013807A683B681B789B0013441B889BB26D
:1056B00023F4E04323F070039BB23A68127813435B
:1056C000A7F866307A683B681B789B001A44B7F8E5
:1056D000663043F07F4343F47F0343F4004343F0D9
:1056E00080039BB213803B681B7B002B40F07881CA
:1056F0003B685B78002B00F084807B68BB617B6833
:10570000B3F850309BB21A46BB691344BB613B6887
:105710001B781A01BB69134403F580637B613B6806
:10572000DB885B089BB25B009AB27B691A807A685F
:105730003B681B789B0013441B887B827B8A03F0A9
:105740004003002B1BD07A683B681B789B001344F6
:105750001B889BB223F4E04323F070033B827A68FA
:105760003B681B789B001A443B8A43F07F4343F419
:105770007F0343F4004343F0C0039BB213803B68B4
:10578000DB78012B20D07A683B681B789B001344A0
:105790001B889BB223F4E04323F04003BB81BB8909
:1057A00083F02003BB817A683B681B789B001A4416
:1057B000BB8943F07F4343F47F0343F4004343F04A
:1057C00080039BB21380D5E27A683B681B789B000C
:1057D00013441B889BB223F4E04323F04003FB8176
:1057E0007A683B681B789B001A44FB8943F07F432F
:1057F00043F47F0343F4004343F080039BB21380E0
:10580000B8E27B683B637B68B3F850309BB21A46C2
:105810003B6B13443B633B681B781A013B6B13449F
:1058200003F58163FB623B68DB885B089BB25B002E
:105830009AB2FB6A1A807B68BB627B68B3F850300F
:105840009BB21A46BB6A1344BB623B681B781A01C1
:10585000BB6A134403F20C437B627B6A1B889BB2D6
:10586000C3F309039AB27B6A1A803B681B693E2B1B
:105870001DD93B681B695B09BB663B681B6903F06C
:105880001F03002B02D1BB6E013BBB667B6A1B88EA
:105890009AB2BB6E9BB29B029BB213439BB26FEA60
:1058A00043436FEA53439AB27B6A1A8026E03B680F
:1058B0001B69002B0AD17B6A1B889BB26FEA4343AA
:1058C0006FEA53439AB27B6A1A8017E03B681B6900
:1058D0005B08BB663B681B6903F00103002B02D029
:1058E000BB6E0133BB667B6A1B889AB2BB6E9BB2F0
:1058F0009B029BB213439AB27B6A1A807A683B6818
:105900001B789B0013441B887B847B8C03F48043AF
:10591000002B1BD07A683B681B789B0013441B88C4
:105920009BB223F4E04323F070033B847A683B6826
:105930001B789B001A443B8C43F07F4343F47F0366
:1059400043F4404343F080039BB213803B681B78D1
:10595000002B24D17A683B681B789B0013441B887A
:105960009BB223F4804323F07003BB83BB8B83F48F
:105970008053BB83BB8B83F40053BB837A683B6843
:105980001B789B001A44BB8B43F07F4343F47F0397
:1059900043F4004343F080039BB21380EAE17A684A
:1059A0003B681B789B0013441B889BB223F4804305
:1059B00023F07003FB83FB8B83F40053FB837A6833
:1059C0003B681B789B001A44FB8B43F07F4343F4F6
:1059D0007F0343F4004343F080039BB21380C9E18B
:1059E0003B68DB78022B1ED17A683B681B789B00F2
:1059F00013441B889BB223F4E04323F07003A7F801
:105A000062307A683B681B789B001A44B7F86230B2
:105A100043F07F4343F47F0343F4014343F08003A7
:105A20009BB213801DE07A683B681B789B0013448F
:105A30001B889BB223F4E24323F07003A7F8643081
:105A40007A683B681B789B001A44B7F8643043F0CF
:105A50007F4343F47F0343F4004343F080039BB24E
:105A600013807B68FB657B68B3F850309BB21A46A5
:105A7000FB6D1344FB653B681B781A01FB6D1344F7
:105A800003F58063BB653B681B895B089BB25B00C9
:105A90009AB2BB6D1A807B687B657B68B3F8503027
:105AA0009BB21A467B6D13447B653B681B781A01D9
:105AB0007B6D134403F581633B653B685B895B0841
:105AC0009BB25B009AB23B6D1A803B685B78002BFF
:105AD00040F093807A683B681B789B0013441B88D6
